:100000000C94BF000C94E7000C94E7000C94E700FC
:100010000C94E7000C94E7000C94E7000C94E700C4
:100020000C94E7000C94E7000C94E7000C94E700B4
:100030000C94E7000C94E7000C94E7000C94E700A4
:100040000C9438060C94E7000C94C0030C94E70061
:100050000C94E7000C94E7000C94E7000C94E70084
:100060000C94E7000C94E7004A616E7561727900A8
:100070004665627275617279004D61726368004114
:100080007072696C004D6179004A756E65004A7541
:100090006C79004175677573740053657074656D94
:1000A000626572004F63746F626572004E6F7665B1
:1000B0006D62657200446563656D6265720068001B
:1000C000700079007F00850089008E0093009A00FF
:1000D000A400AC00B50053756E646179004D6F6E7D
:1000E0006461790054756573646179005765646E65
:1000F0006573646179005468757273646179004650
:10010000726964617900536174757264617900D6B3
:1001100000DD00E400EC00F600FF00060100000036
:1001200000240027002A0000000000250028002BE2
:100130000000000000230026002900040404040439
:100140000404040202020202020303030303030184
:10015000020408102040800102040810200102045B
:100160000810200000000700020100000304060040
:100170000000000000000000E3016B02B504112440
:100180001FBECFEFD4E0DEBFCDBF11E0A0E0B1E0F5
:10019000E4EDFFE002C005900D92AC32B107D9F753
:1001A00011E0ACE2B1E001C01D92A63EB107E1F75B
:1001B00011E0CEE7D1E004C02297FE010E94E407DF
:1001C000C837D107C9F70E94B9030C94E8070C940B
:1001D0000000FB01DC0105900D920020E1F708957D
:1001E0002F923F924F925F926F927F928F929F9247
:1001F000AF92BF92CF92DF92EF92FF920F931F9335
:10020000DF93CF9300D000D0CDB7DEB7FB013A012A
:1002100029011801FA82E982BC82AB825401E08094
:10022000F18002811381C801B7012CE330E040E086
:1002300050E00E94B307D3016C93C801B7012CE3CF
:1002400030E040E050E00E94B307122F032FF42E5D
:10025000E52E622F732F842F952F2CE330E040E0A2
:1002600050E00E94B307F2016083612F702F8F2D41
:100270009E2D2CE330E040E050E00E94B307122FA7
:10028000032FF42EE52E622F732F842F952F28E154
:1002900030E040E050E00E94B307D1016C93612F41
:1002A000702F8F2D9E2D28E130E040E050E00E941D
:1002B000B30779018A01C801B7016C5F7F4F8F4F87
:1002C0009F4F27E030E040E050E00E94B307F60186
:1002D0006083E6E420E030E040E050E001C0EF5F02
:1002E0006E2F70E0637070706115710529F08DE6F6
:1002F00091E0A0E0B0E004C08EE691E0A0E0B0E0C4
:10030000280F391F4A1F5B1FC901A0E0B0E0E816A3
:10031000F9060A071B071CF7D501EC936115710557
:1003200029F48EE691E0A0E0B0E004C08DE691E013
:10033000A0E0B0E0281B390B4A0B5B0BD801C701CA
:10034000821B930BA40BB50B9C01AD01E6E1F1E020
:1003500090E0913039F46115710511F08CE103C022
:100360008DE101C08081E82EFF2400E010E02E1511
:100370003F054007510744F02E193F09400B510B30
:100380009F5F31969C3029F7AB81BC819C93822F73
:100390008F5FE981FA8180830F900F900F900F900B
:1003A000CF91DF911F910F91FF90EF90DF90CF9051
:1003B000BF90AF909F908F907F906F905F904F9085
:1003C0003F902F90089510923501109234010895B6
:1003D000CF93DF93EC0113C088819981AA81BB81FF
:1003E0000196A11DB11D88839983AA83BB832851DF
:1003F0003C4F4F4F5F4F2C833D834E835F830E9462
:1004000080062C813D814E815F81621B730B840BC2
:10041000950B685E734080409040F0F6688179816A
:100420008A819B81DF91CF9108958F929F92AF92A5
:10043000BF92CF92DF92EF92FF920F931F93CF93D1
:10044000DF93EC0188859985892B11F480E020C029
:10045000CE010E94E8019E01255F3F4F8E01065F9D
:100460001F4FFE013D96DE011E969FE0A92EB12C86
:10047000AC0EBD1E80E1882E912C8C0E9D1ECE01EF
:10048000BE012C96AE017F016D010E94F00081E05B
:10049000DF91CF911F910F91FF90EF90DF90CF9060
:1004A000BF90AF909F908F9008950F931F938C01F2
:1004B000FC0140835183628373830E948006F801AC
:1004C000648375838683978382E090E09187808739
:1004D0001F910F9108951092460108950F931F9355
:1004E000182F092FE62FF0E0EE0FFF1FE15FFE4F00
:1004F00065917491812F0E94E900812F902F1F91A7
:100500000F9108950F931F93182F092FE62FF0E0F6
:10051000EE0FFF1FE254FF4F65917491902F0E94E0
:10052000E900812F902F1F910F9108951F93182F8D
:100530008BEC91E060E071E00E942B051A3028F40A
:100540008BEC91E060E30E942305412F50E060E0D6
:1005500070E08BEC91E02AE030E00E9418061F91D9
:100560000895CF92DF92EF92FF920F931F930BECBF
:1005700011E04091360150E060E070E0C8012AE0EF
:1005800030E00E941806809137010E949602809107
:1005900038010E94960292E0E92E91E0F92EC801FE
:1005A000B7010E942B058DE3C82E81E0D82EC6012D
:1005B00060913A010E946E02BC01C8010E942B05A5
:1005C000C801B7010E942B05C60160913B010E9442
:1005D0008202BC01C8010E942B05C801B7010E941C
:1005E0002B054091390150E060E070E0C8012AE03D
:1005F00030E00E942D061F910F91FF90EF90DF9049
:10060000CF900895DF92EF92FF920F931F93CF93B5
:10061000DF9337C08BEC91E00E947A04813491051E
:1006200081F5EE24FF248701C0E0D0E08BEC91E05F
:100630000E947A04D82E80538A30B8F4C801B701DA
:100640002AE030E040E050E00E945F072D2D332784
:1006500027FD30952053304079010027F7FC0095A5
:10066000102FE60EF71E081F191F2196CA30D1055C
:10067000E9F68CE291E0B801A7010E94550281E001
:1006800007C08BEC91E00E9466048B3018F680E086
:10069000DF91CF911F910F91FF90EF90DF90089520
:1006A000EF92FF920F931F930E940203882391F011
:1006B0008BEC91E064E071E00E942B058CE291E00C
:1006C0000E94E801AB01BC018BEC91E02AE030E034
:1006D0000E942D068CE291E00E941502882389F188
:1006E0008DE060E00E9412078CE291E00E94E80138
:1006F0007B018C018CE291E00E94E801E616F7068E
:1007000008071907B9F38CE291E00E9415020E94D4
:10071000B1028BEC91E041E450E060E070E020E059
:1007200030E00E9418068CE291E00E94E801AB01E3
:10073000BC018BEC91E00E94E6058DE061E00E9437
:10074000120764E670E080E090E00E948E061F9140
:100750000F91FF90EF9008958BEC91E040E05BE407
:1007600060E070E00E94FD038DE061E00E94F2060F
:1007700008950E94B8060E94AC030E945003FDCF6A
:100780001F920F920FB60F9211242F933F934F9306
:100790005F936F937F938F939F93AF93BF93EF93E9
:1007A000FF934091C600E091C701F091C801CF01CD
:1007B000019660E870E00E947E079C018091C9016B
:1007C0009091CA012817390739F0E95BFE4F408341
:1007D0003093C8012093C701FF91EF91BF91AF9172
:1007E0009F918F917F916F915F914F913F912F9149
:1007F0000F900FBE0F901F901895AF92BF92CF929F
:10080000DF92EF92FF920F931F93CF93DF936C01D0
:100810007A018B01DC011496AD90BC901597CB0149
:10082000BA0122E030E040E050E00E94B307205CD3
:100830003D4B404F5F4FCA01B901A80197010E948B
:10084000B307C901DA010197A109B109292F3A2F8C
:100850004B2F552747FD5A950196A11DB11DE50166
:100860002883E601EE81FF8181508083EA85FB8544
:10087000208141E050E0CA010E8402C0880F991F18
:100880000A94E2F7282B2083EA85FB852081CA01A0
:100890000F8402C0880F991F0A94E2F7282B208347
:1008A000EA85FB858081088802C0440F551F0A94A1
:1008B000E2F7842B8083DF91CF911F910F91FF90FE
:1008C000EF90DF90CF90BF90AF900895DC0112962B
:1008D000ED91FC911397E058FF4F819191918058D1
:1008E0009F4F20813181821B930B60E870E00E9452
:1008F0007E070895CF93DF93DC011296ED91FC9172
:100900001397EF01CE57DF4F48815981E058FF4FD1
:1009100080819181E058F0408417950719F42FEFFA
:100920003FEF0CC0E40FF51F2081CA01019660E87B
:1009300070E00E947E079983888330E0C901DF91CF
:10094000CF910895FC01A085B18521898C9190E01B
:10095000022E02C0959587950A94E2F780FFF6CFA4
:100960000484F585E02D6083089586E291E09093FC
:10097000CC018093CB0187E491E09093CE018093EA
:10098000CD0185EC90E09093D0018093CF0184EC71
:1009900090E09093D2018093D10180EC90E090930D
:1009A000D4018093D30181EC90E09093D6018093A1
:1009B000D50186EC90E09093D8018093D70184E034
:1009C0008093D90183E08093DA0187E08093DB0193
:1009D00085E08093DC0108950F931F93CF93DF93FD
:1009E0008C01EB0109C02196D801ED91FC91019099
:1009F000F081E02DC801099568816623A1F7DF9198
:100A0000CF911F910F910895EF92FF920F931F9333
:100A1000CF93DF938C017B01EA010CC0D7016D916C
:100A20007D01D801ED91FC910190F081E02DC8018C
:100A300009952197209791F7DF91CF911F910F9101
:100A4000FF90EF900895DC01ED91FC910190F08111
:100A5000E02D09950895DC01ED91FC910280F38170
:100A6000E02D099508950F931F938C01DC01ED9102
:100A7000FC910190F081E02D6DE00995D801ED9198
:100A8000FC910190F081E02DC8016AE009951F9169
:100A90000F9108952F923F924F925F926F927F92A3
:100AA0008F929F92AF92BF92CF92DF92EF92FF927E
:100AB0000F931F93DF93CF93CDB7DEB7A0970FB6F9
:100AC000F894DEBF0FBECDBF1C016A017B0141154A
:100AD00051056105710549F4DC01ED91FC9101902E
:100AE000F081E02D60E3099554C0882499245401D5
:100AF000422E55246624772401E010E00C0F1D1FC0
:100B0000080D191DC701B601A30192010E949107AA
:100B1000F80160830894811C911CA11CB11CC701C1
:100B2000B601A30192010E949107C901DA016C018B
:100B30007D01C114D104E104F104F1F681E0E82E55
:100B4000F12CEC0EFD1EE80CF91C3E010894611C12
:100B5000711CD501C4010197A109B1096C01C81824
:100B6000D90814C0F601EE0DFF1D60816A3010F443
:100B7000605D01C0695CD101ED91FC910190F08153
:100B8000E02DC10109950894E108F1086E147F0475
:100B900049F7A0960FB6F894DEBF0FBECDBFCF9138
:100BA000DF911F910F91FF90EF90DF90CF90BF905A
:100BB000AF909F908F907F906F905F904F903F90FD
:100BC0002F9008952AE00E944A0508950F931F93DD
:100BD0008C010E94E205C8010E9433051F910F910C
:100BE0000895EF92FF920F931F93CF93DF93EC0141
:100BF0007A018B0177FF0FC0E881F9810190F081C4
:100C0000E02D6DE2099510950095F094E094E11CBB
:100C1000F11C011D111DCE01B801A7012AE00E949F
:100C20004A05DF91CF911F910F91FF90EF900895AA
:100C3000DC012115310541F4ED91FC910190F08129
:100C4000E02D642F099508952A30310519F40E948A
:100C5000F10508950E944A0508950F931F938C0192
:100C60000E941806C8010E9433051F910F91089534
:100C70001F920F920FB60F9211242F933F938F93D1
:100C80009F93AF93BF938091E1019091E201A09176
:100C9000E301B091E4013091E5010196A11DB11D80
:100CA000232F2D5F2D3720F02D570196A11DB11D4B
:100CB0002093E5018093E1019093E201A093E30189
:100CC000B093E4018091DD019091DE01A091DF01FC
:100CD000B091E0010196A11DB11D8093DD019093BB
:100CE000DE01A093DF01B093E001BF91AF919F912E
:100CF0008F913F912F910F900FBE0F901F901895DD
:100D00008FB7F8942091E1013091E2014091E30125
:100D10005091E4018FBFB901CA010895EF92FF928B
:100D20000F931F937B018C018FB7F8944091E101E1
:100D30005091E2016091E3017091E4018FBF2FB700
:100D4000F8948091E1019091E201A091E301B091CA
:100D5000E4012FBF841B950BA60BB70BE816F90611
:100D60000A071B0760F71F910F91FF90EF900895FE
:100D7000789484B5826084BD84B5816084BD85B576
:100D8000826085BD85B5816085BDEEE6F0E080813D
:100D900081608083E1E8F0E08081826080838081EF
:100DA00081608083E0E8F0E0808181608083E1EB16
:100DB000F0E0808184608083E0EBF0E080818160FE
:100DC0008083EAE7F0E080818460808380818260B4
:100DD000808380818160808380818068808310929D
:100DE000C1000895282F30E0C901815B9E4FFC01AE
:100DF0009491255C3E4FF9018491882391F0E82F6E
:100E0000F0E0EE0FFF1FE35EFE4FA591B491662365
:100E100029F48C91909589238C9308958C91892B3A
:100E20008C930895482F50E0CA018D599E4FFC01C4
:100E30002491CA01815B9E4FFC019491455C5E4FF9
:100E4000FA0134913323D1F1222331F1233021F4FB
:100E5000809180008F7705C0243031F4809180002C
:100E60008F7D8093800018C0213019F484B58F776E
:100E700004C0223021F484B58F7D84BD0DC026309E
:100E800021F48091B0008F7705C0273029F480913C
:100E9000B0008F7D8093B000E32FF0E0EE0FFF1FD6
:100EA000E95DFE4FA591B491662329F48C9190954C
:100EB00089238C9308958C91892B8C930895629F3C
:100EC000D001739FF001829FE00DF11D649FE00D42
:100ED000F11D929FF00D839FF00D749FF00D659FA3
:100EE000F00D9927729FB00DE11DF91F639FB00DA2
:100EF000E11DF91FBD01CF011124089597FB092EB3
:100F000007260AD077FD04D049D006D000201AF475
:100F1000709561957F4F0895F6F7909581959F4F55
:100F20000895A1E21A2EAA1BBB1BFD010DC0AA1F2A
:100F3000BB1FEE1FFF1FA217B307E407F50720F042
:100F4000A21BB30BE40BF50B661F771F881F991FBD
:100F50001A9469F760957095809590959B01AC0106
:100F6000BD01CF01089597FB092E05260ED057FD30
:100F700004D0D7DF0AD0001C38F450954095309546
:100F800021953F4F4F4F5F4F0895F6F7909580950D
:100F9000709561957F4F8F4F9F4F0895AA1BBB1B84
:100FA00051E107C0AA1FBB1FA617B70710F0A61B69
:100FB000B70B881F991F5A95A9F780959095BC018A
:100FC000CD010895EE0FFF1F0590F491E02D0994D7
:040FD000F894FFCFC3
:100FD4003A002000436C6F636B2073796E63656421
:100FE4002061743A20001F1C1F1E1F1E1F1F1E1F7E
:0C0FF4001E1F00000000A204EC04040515
:00000001FF
