:100000000C94BF000C94E7000C94E7000C94E700FC
:100010000C94E7000C94E7000C94E7000C94E700C4
:100020000C94E7000C94E7000C94E7000C94E700B4
:100030000C94E7000C94E7000C94E7000C94E700A4
:100040000C9474070C94E7000C94AD040C94E70036
:100050000C94E7000C94E7000C94E7000C94E70084
:100060000C94E7000C94E7004A616E7561727900A8
:100070004665627275617279004D61726368004114
:100080007072696C004D6179004A756E65004A7541
:100090006C79004175677573740053657074656D94
:1000A000626572004F63746F626572004E6F7665B1
:1000B0006D62657200446563656D6265720068001B
:1000C000700079007F00850089008E0093009A00FF
:1000D000A400AC00B50053756E646179004D6F6E7D
:1000E0006461790054756573646179005765646E65
:1000F0006573646179005468757273646179004650
:10010000726964617900536174757264617900D6B3
:1001100000DD00E400EC00F600FF00060100000036
:1001200000240027002A0000000000250028002BE2
:100130000000000000230026002900040404040439
:100140000404040202020202020303030303030184
:10015000020408102040800102040810200102045B
:100160000810200000000700020100000304060040
:100170000000000000000000F000F50066051124FA
:100180001FBECFEFD4E0DEBFCDBF11E0A0E0B1E0F5
:10019000EAE6F6E102C005900D92AA31B107D9F75F
:1001A00011E0AAE1B1E001C01D92AA3FB107E1F759
:1001B00011E0CEE7D1E004C02297FE010E942F0B90
:1001C000C837D107C9F70E94A6040C94330B0C94CE
:1001D0000000FB01DC0105900D920020E1F708957D
:1001E0001092230110922201089510923401089573
:1001F0000F931F93182F092FE62FF0E0EE0FFF1F2C
:10020000E15FFE4F65917491812F0E94E900812F7B
:10021000902F1F910F9108950F931F93182F092F5F
:10022000E62FF0E0EE0FFF1FE254FF4F659174914F
:10023000902F0E94E900812F902F1F910F91089518
:100240001F93182F8FED91E060E071E00E94DC05B4
:100250001A3028F48FED91E060E30E94D405412F1D
:1002600050E060E070E08FED91E02AE030E00E9425
:10027000C9061F910895CF92DF92EF92FF920F93DC
:100280001F930FED11E04091240150E060E070E019
:10029000C8012AE030E00E94C906809125010E9431
:1002A0002001809126010E94200192E0E92E91E038
:1002B000F92EC801B7010E94DC058BE2C82E81E04F
:1002C000D82EC601609128010E94F800BC01C80127
:1002D0000E94DC05C801B7010E94DC05C6016091DF
:1002E00029010E940C01BC01C8010E94DC05C80163
:1002F000B7010E94DC054091270150E060E070E00A
:10030000C8012AE030E00E94C9061F910F91FF90BA
:10031000EF90DF90CF90089510925A0110925901FA
:1003200080E00E942008809135010E94230890936C
:10033000380180933701809135010E942308909302
:10034000380180933701AA2797FDA095BA2FBC01E9
:10035000CD010E94B20920E030E042E05EE30E945D
:10036000660A20E030E040EF51E40E94AE0860935E
:10037000490170934A0180934B0190934C01809105
:1003800006010E9423089093380180933701AA2721
:1003900097FDA095BA2FBC01CD010E94B20920E0C3
:1003A00030E048EC5DE30E94660A60934D01709373
:1003B0004E0180934F0190935001809108010E945B
:1003C00023089093380180933701AA2797FDA095C1
:1003D000BA2FBC01CD010E94B20920E030E042E01A
:1003E0005EE30E94660A20E030E040EF51E40E94A4
:1003F000AE08609351017093520180935301909322
:10040000540180910A010E9423089093380180933F
:100410003701AA2797FDA095BA2FBC01CD010E94F4
:10042000B20920E030E048EC5DE30E94660A609388
:100430005501709356018093570190935801609134
:10044000490170914A0180914B0190914C0120919A
:10045000390130913A0140913B0150913C010E9499
:10046000AE082AE939E949E95EE30E94620A1816F2
:100470000CF09AC00E943B018FED91E062E071E0C8
:100480000E94DC0540914D0150914E0160914F0159
:10049000709150018FED91E00E9470078FED91E017
:1004A00062E071E00E94DC054091510150915201DF
:1004B00060915301709154018FED91E00E9470079B
:1004C0008FED91E062E071E00E94DC054091550102
:1004D0005091560160915701709158018FED91E054
:1004E0000E9470078FED91E062E071E00E94DC05F0
:1004F0004091590150915A0160915B0170915C01EA
:100500008FED91E00E9470078FED91E04AE150E09D
:1005100060E070E020E030E00E94DE0681E090E0E4
:1005200090935A01809359018091490190914A0119
:10053000A0914B01B0914C018093390190933A0105
:10054000A0933B01B0933C0180914D0190914E01ED
:10055000A0914F01B091500180933D0190933E01D5
:10056000A0933F01B09340018091510190915201BD
:10057000A0915301B09154018093410190934201A5
:10058000A0934301B093440180915501909156018D
:10059000A0915701B0915801809345019093460175
:1005A000A0934701B09348018091590190915A015D
:1005B000019709F4AFC060914D0170914E01809197
:1005C0004F019091500120913D0130913E014091A9
:1005D0003F01509140010E94AE082AE939E949E9FA
:1005E0005EE30E94620A18160CF094C00E943B0160
:1005F0008FED91E062E071E00E94DC0540914901DD
:1006000050914A0160914B0170914C018FED91E046
:100610000E9470078FED91E062E071E00E94DC05BE
:1006200040914D0150914E0160914F0170915001E8
:100630008FED91E00E9470078FED91E062E071E034
:100640000E94DC054091510150915201609153018B
:10065000709154018FED91E00E9470078FED91E051
:1006600062E071E00E94DC05409155015091560115
:1006700060915701709158018FED91E00E947007D1
:100680008FED91E04AE150E060E070E020E030E082
:100690000E94DE068091490190914A01A0914B0190
:1006A000B0914C018093390190933A01A0933B01A2
:1006B000B0933C0180914D0190914E01A0914F016A
:1006C000B091500180933D0190933E01A0933F0172
:1006D000B09340018091510190915201A09153013A
:1006E000B09154018093410190934201A093430142
:1006F000B09344018091550190915601A09157010A
:10070000B09158018093450190934601A093470111
:10071000B093480180910C0161E00E94610864E699
:1007200070E080E090E00E94BC0780910C0160E0E6
:100730000E94610864E670E080E090E00E94BC07DF
:1007400080910C0161E00E94610864E670E080E045
:1007500090E00E94BC0780910C0160E00E9461085B
:100760000895EF92FF920F931F9380910C0161E027
:100770000E9441088091350160E00E94410880910B
:10078000060160E00E9441088091080160E00E943B
:10079000410880910A0160E00E9441082FEDE22E9D
:1007A00021E0F22EC70140E855E260E070E00E94CF
:1007B000EA04809135010E942308909338018093C8
:1007C0003701AA2797FDA095BA2FBC01CD010E9441
:1007D000B20920E030E042E05EE30E94660A20E0D9
:1007E00030E040EF51E40E94AE08609349017093FD
:1007F0004A0180934B0190934C01809106010E9425
:1008000023089093380180933701AA2797FDA0957C
:10081000BA2FBC01CD010E94B20920E030E048ECC3
:100820005DE30E94660A60934D0170934E018093D0
:100830004F0190935001809108010E9423089093EA
:10084000380180933701AA2797FDA095BA2FBC01E4
:10085000CD010E94B20920E030E042E05EE30E9458
:10086000660A20E030E040EF51E40E94AE08609359
:1008700051017093520180935301909354018091E0
:100880000A010E9423089093380180933701AA2718
:1008900097FDA095BA2FBC01CD010E94B20920E0BE
:1008A00030E048EC5DE30E94660A60935501709366
:1008B000560180935701909358010E943B0102E03A
:1008C00011E0C701B8010E94DC0540914D01509133
:1008D0004E0160914F0170915001C7010E94700755
:1008E000C701B8010E94DC054091510150915201AD
:1008F0006091530170915401C7010E947007C701B4
:10090000B8010E94DC05409155015091560160915B
:10091000570170915801C7010E947007C701B801C3
:100920000E94DC054091590150915A0160915B0190
:1009300070915C01C7010E947007C701B8010E9455
:10094000FB051F910F91FF90EF9008950E94E6071D
:100950000E94B1030E948C01FDCF1F920F920FB62F
:100960000F9211242F933F934F935F936F937F9335
:100970008F939F93AF93BF93EF93FF934091C600E4
:10098000E091DB01F091DC01CF01019660E870E0BD
:100990000E94C90A9C018091DD019091DE01281717
:1009A000390739F0E55AFE4F40833093DC0120933C
:1009B000DB01FF91EF91BF91AF919F918F917F915B
:1009C0006F915F914F913F912F910F900FBE0F90BC
:1009D0001F901895AF92BF92CF92DF92EF92FF9245
:1009E0000F931F93CF93DF936C017A018B01DC018E
:1009F0001496AD90BC901597CB01BA0122E030E07F
:100A000040E050E00E94FE0A205C3D4B404F5F4FAB
:100A1000CA01B901A80197010E94FE0AC901DA01C1
:100A20000197A109B109292F3A2F4B2F552747FDCF
:100A30005A950196A11DB11DE5012883E601EE81BD
:100A4000FF8181508083EA85FB85208141E050E071
:100A5000CA010E8402C0880F991F0A94E2F7282B5E
:100A60002083EA85FB852081CA010F8402C0880F9C
:100A7000991F0A94E2F7282B2083EA85FB85808161
:100A8000088802C0440F551F0A94E2F7842B808324
:100A9000DF91CF911F910F91FF90EF90DF90CF905A
:100AA000BF90AF900895FC01A085B18521898C91FC
:100AB00090E0022E02C0959587950A94E2F780FF98
:100AC000F6CF0484F585E02D6083089583E191E0FD
:100AD0009093E0018093DF018BE591E09093E20138
:100AE0008093E10185EC90E09093E4018093E30131
:100AF00084EC90E09093E6018093E50180EC90E037
:100B00009093E8018093E70181EC90E09093EA01F3
:100B10008093E90186EC90E09093EC018093EB01E7
:100B200084E08093ED0183E08093EE0187E0809381
:100B3000EF0185E08093F00108950F931F93CF9309
:100B4000DF938C01EB0109C02196D801ED91FC9156
:100B50000190F081E02DC801099568816623A1F715
:100B6000DF91CF911F910F910895EF92FF920F9314
:100B70001F93CF93DF938C017B01EA010CC0D70157
:100B80006D917D01D801ED91FC910190F081E02DF6
:100B9000C80109952197209791F7DF91CF911F9177
:100BA0000F91FF90EF900895DC01ED91FC91019081
:100BB000F081E02D09950895DC01ED91FC91028012
:100BC000F381E02D099508950F931F938C01DC01AB
:100BD000ED91FC910190F081E02D6DE00995D80137
:100BE000ED91FC910190F081E02DC8016AE009953A
:100BF0001F910F9108950F931F938C010E94DC05A4
:100C0000C8010E94E4051F910F9108952F923F9211
:100C10004F925F926F927F928F929F92AF92BF920C
:100C2000CF92DF92EF92FF920F931F93DF93CF93B8
:100C3000CDB7DEB7A0970FB6F894DEBF0FBECDBF1D
:100C40001C016A017B01411551056105710549F4DB
:100C5000DC01ED91FC910190F081E02D60E30995BC
:100C600054C0882499245401422E552466247724A4
:100C700001E010E00C0F1D1F080D191DC701B60182
:100C8000A30192010E94DC0AF80160830894811C90
:100C9000911CA11CB11CC701B601A30192010E94C5
:100CA000DC0AC901DA016C017D01C114D104E1043F
:100CB000F104F1F681E0E82EF12CEC0EFD1EE80CBB
:100CC000F91C3E010894611C711CD501C4010197F7
:100CD000A109B1096C01C818D90814C0F601EE0DBC
:100CE000FF1D60816A3010F4605D01C0695CD10154
:100CF000ED91FC910190F081E02DC10109950894DE
:100D0000E108F1086E147F0449F7A0960FB6F89435
:100D1000DEBF0FBECDBFCF91DF911F910F91FF902E
:100D2000EF90DF90CF90BF90AF909F908F907F908B
:100D30006F905F904F903F902F9008952AE00E940F
:100D400006060895EF92FF920F931F93CF93DF93C0
:100D5000EC017A018B0177FF0FC0E881F9810190E6
:100D6000F081E02D6DE2099510950095F094E094E6
:100D7000E11CF11C011D111DCE01B801A7012AE0E3
:100D80000E940606DF91CF911F910F91FF90EF9087
:100D90000895DC012115310541F4ED91FC9101909C
:100DA000F081E02D642F099508952A30310519F45A
:100DB0000E94A20608950E94060608950F931F93AD
:100DC0008C010E94C906C8010E94E4051F910F9181
:100DD00008959F92AF92BF92CF92DF92EF92FF92CF
:100DE0000F931F93CF93DF93EC017A018B01922E27
:100DF000CB01BA0120E030E040E050E00E9413094E
:100E0000882364F4E881F9810190F081E02DCE011E
:100E10006DE2099517FB109517F9109520E030E069
:100E200040E05FE3AA240BC0CA01B90120E030E032
:100E300040E251E40E9417099B01AC01A394A9145C
:100E400098F3C801B7010E94AF085B016C010E94D2
:100E500084097B018C01CE01B801A7010E949E0686
:100E6000992029F0CE0164E071E00E94DC05C80100
:100E7000B7010E94B0099B01AC01C601B5010E94F7
:100E8000AE0820C020E030E040E251E40E94660A53
:100E90007B018C010E947F095B016C01CC24B7FCB3
:100EA000C094DC2CCE01B601A5010E94A206C601A9
:100EB000B5010E94B2099B01AC01C801B7010E94B3
:100EC000AE089A949920F1F6DF91CF911F910F917E
:100ED000FF90EF90DF90CF90BF90AF909F900895DC
:100EE00022E00E94E90608951F920F920FB60F921A
:100EF00011242F933F938F939F93AF93BF93809130
:100F0000F5019091F601A091F701B091F8013091AF
:100F1000F9010196A11DB11D232F2D5F2D3720F062
:100F20002D570196A11DB11D2093F9018093F50164
:100F30009093F601A093F701B093F8018091F1012D
:100F40009091F201A091F301B091F4010196A11DDD
:100F5000B11D8093F1019093F201A093F301B0933E
:100F6000F401BF91AF919F918F913F912F910F907D
:100F70000FBE0F901F901895EF92FF920F931F9343
:100F80007B018C018FB7F8944091F5015091F601E7
:100F90006091F7017091F8018FBF2FB7F89480919D
:100FA000F5019091F601A091F701B091F8012FBFE2
:100FB000841B950BA60BB70BE816F9060A071B074F
:100FC00060F71F910F91FF90EF900895789484B58A
:100FD000826084BD84B5816084BD85B5826085BD35
:100FE00085B5816085BDEEE6F0E08081816080831B
:100FF000E1E8F0E08081826080838081816080838D
:10100000E0E8F0E0808181608083E1EBF0E08081C6
:1010100084608083E0EBF0E0808181608083EAE798
:10102000F0E0808184608083808182608083808121
:10103000816080838081806880831092C1000895E0
:1010400080930E010895877090910E019295990FEB
:10105000990F907C982B90937C0080917A0080640B
:1010600080937A0080917A0086FDFCCF20917800F1
:1010700040917900942F80E030E0282B392BC90172
:101080000895282F30E0C901815B9E4FFC019491A7
:10109000255C3E4FF9018491882391F0E82FF0E020
:1010A000EE0FFF1FE35EFE4FA591B491662329F476
:1010B0008C91909589238C9308958C91892B8C9396
:1010C0000895482F50E0CA018D599E4FFC0124918C
:1010D000CA01815B9E4FFC019491455C5E4FFA0111
:1010E00034913323D1F1222331F1233021F4809143
:1010F00080008F7705C0243031F4809180008F7D8F
:101100008093800018C0213019F484B58F7704C013
:10111000223021F484B58F7D84BD0DC0263021F4AA
:101120008091B0008F7705C0273029F48091B000FE
:101130008F7D8093B000E32FF0E0EE0FFF1FE95D9D
:10114000FE4FA591B491662329F48C919095892343
:101150008C9308958C91892B8C9308955058BB27BC
:10116000AA270ED075C166D130F06BD120F031F4D2
:101170009F3F11F41EF45BC10EF4E095E7FB51C1F3
:10118000E92F77D180F3BA176207730784079507B1
:1011900018F071F49EF58FC10EF4E0950B2EBA2F66
:1011A000A02D0B01B90190010C01CA01A00111246D
:1011B000FF27591B99F0593F50F4503E68F11A1619
:1011C000F040A22F232F342F4427585FF3CF4695AA
:1011D00037952795A795F0405395C9F77EF41F16CC
:1011E000BA0B620B730B840BBAF09150A1F0FF0F96
:1011F000BB1F661F771F881FC2F70EC0BA0F621F82
:10120000731F841F48F4879577956795B795F79571
:101210009E3F08F0B3CF9395880F08F09927EE0F03
:10122000979587950895D9D008F481E008950CD05A
:101230000FC107D140F0FED030F021F45F3F19F02C
:10124000F0C0511139C1F3C014D198F39923C9F3F7
:101250005523B1F3951B550BBB27AA2762177307BC
:10126000840738F09F5F5F4F220F331F441FAA1F70
:10127000A9F333D00E2E3AF0E0E830D09150504030
:10128000E695001CCAF729D0FE2F27D0660F771FDE
:10129000881FBB1F261737074807AB07B0E809F0C0
:1012A000BB0B802DBF01FF2793585F4F2AF09E3F55
:1012B000510568F0B6C000C15F3FECF3983EDCF327
:1012C000869577956795B795F7959F5FC9F7880FCE
:1012D000911D9695879597F90895E1E0660F771F20
:1012E000881FBB1F621773078407BA0720F0621BB1
:1012F000730B840BBA0BEE1F88F7E095089504D0AA
:101300006894B111D9C00895BCD088F09F5790F06F
:10131000B92F9927B751A0F0D1F0660F771F881F1A
:10132000991F1AF0BA95C9F712C0B13081F0C3D035
:10133000B1E00895C0C0672F782F8827B85F39F0D3
:10134000B93FCCF3869577956795B395D9F73EF479
:1013500090958095709561957F4F8F4F9F4F089521
:10136000E89409C097FB3EF490958095709561953F
:101370007F4F8F4F9F4F9923A9F0F92F96E9BB27F5
:101380009395F695879577956795B795F111F8CF71
:10139000FAF4BB0F11F460FF1BC06F5F7F4F8F4FDC
:1013A0009F4F16C0882311F096E911C0772321F0D2
:1013B0009EE8872F762F05C0662371F096E8862F6A
:1013C00070E060E02AF09A95660F771F881FDAF7C1
:1013D000880F9695879597F90895990F0008550FEE
:1013E000AA0BE0E8FEEF16161706E807F907C0F0AB
:1013F00012161306E407F50798F0621B730B840BB3
:10140000950B39F40A2661F0232B242B252B21F48C
:1014100008950A2609F4A140A6958FEF811D811D2C
:10142000089597F99F6780E870E060E008959FEF66
:1014300080EC089500240A9416161706180609066B
:10144000089500240A94121613061406050608953A
:10145000092E0394000C11F4882352F0BB0F40F4C2
:10146000BF2B11F460FF04C06F5F7F4F8F4F9F4F02
:10147000089557FD9058440F551F59F05F3F71F084
:101480004795880F97FB991F61F09F3F79F08795EB
:101490000895121613061406551FF2CF4695F1DF74
:1014A00008C0161617061806991FF1CF8695710504
:1014B000610508940895E894BB2766277727CB0138
:1014C00097F908958ADF08F48FEF08950BD0C0CF05
:1014D000B1DF28F0B6DF18F0952309F0A2CFA7CF2F
:1014E0001124EACFC6DFA0F3959FD1F3950F50E00A
:1014F000551F629FF001729FBB27F00DB11D639FC6
:10150000AA27F00DB11DAA1F649F6627B00DA11D6B
:10151000661F829F2227B00DA11D621F739FB00D11
:10152000A11D621F839FA00D611D221F749F332781
:10153000A00D611D231F849F600D211D822F762F1A
:101540006A2F11249F5750408AF0E1F088234AF017
:10155000EE0FFF1FBB1F661F771F881F9150504063
:10156000A9F79E3F510570F05CCFA6CF5F3FECF32B
:10157000983EDCF3869577956795B795F795E7954F
:101580009F5FC1F7FE2B880F911D9695879597F960
:10159000089597FB092E07260AD077FD04D049D07D
:1015A00006D000201AF4709561957F4F0895F6F7E4
:1015B000909581959F4F0895A1E21A2EAA1BBB1BFF
:1015C000FD010DC0AA1FBB1FEE1FFF1FA217B3070F
:1015D000E407F50720F0A21BB30BE40BF50B661F25
:1015E000771F881F991F1A9469F7609570958095E9
:1015F00090959B01AC01BD01CF01089597FB092E89
:1016000005260ED057FD04D0D7DF0AD0001C38F4D1
:1016100050954095309521953F4F4F4F5F4F08951E
:10162000F6F790958095709561957F4F8F4F9F4FFE
:101630000895AA1BBB1B51E107C0AA1FBB1FA61719
:10164000B70710F0A61BB70B881F991F5A95A9F76B
:1016500080959095BC01CD010895EE0FFF1F059078
:0A166000F491E02D0994F894FFCFF7
:10166A003A0020002E000100020003000D000100D4
:0A167A0000000053059D05B50500B2
:00000001FF
