:100000000C9462000C948A000C948A000C948A0070
:100010000C948A000C948A000C948A000C948A0038
:100020000C948A000C948A000C948A000C948A0028
:100030000C948A000C948A000C948A000C948A0018
:100040000C942A030C948A000C94EA000C948A0005
:100050000C948A000C948A000C948A000C948A00F8
:100060000C948A000C948A000000000024002700F1
:100070002A0000000000250028002B0000000000DE
:1000800023002600290004040404040404040202DA
:100090000202020203030303030301020408102007
:1000A0004080010204081020010204081020000012
:1000B0000007000201000003040600000000000029
:1000C0000000CB0111241FBECFEFD4E0DEBFCDBFB7
:1000D00011E0A0E0B1E0EEE5F9E002C005900D927C
:1000E000A833B107D9F711E0A8E3B1E001C01D9230
:1000F000A93DB107E1F710E0C4ECD0E004C02297BD
:10010000FE010E94A904C23CD107C9F70E94E30086
:100110000C94AD040C940000CF93DF938EEB91E030
:100120000E949001BC019093390180933801C197DE
:10013000099770F5605370407093390160933801EE
:10014000C0E0D0E01DC08EEB91E060E071E00E9465
:10015000580280912B0161E00E94F60368EE73E083
:1001600080E090E00E94720380912B0160E00E9489
:10017000F60368EE73E080E090E00E94720321963F
:100180008091380190913901C817D907E4F20AC06B
:100190008EEB91E00E9422038EEB91E067E071E02C
:1001A0000E945802DF91CF91089580912B0161E068
:1001B0000E94D6038EEB91E040E855E260E070E0EB
:1001C0000E94270108950E949C030E94D5000E946E
:1001D0008C00FDCF1F920F920FB60F9211242F9318
:1001E0003F934F935F936F937F938F939F93AF93BF
:1001F000BF93EF93FF934091C600E091BA01F09155
:10020000BB01CF01019660E870E00E9443049C01AD
:100210008091BC019091BD012817390739F0E65C47
:10022000FE4F40833093BB012093BA01FF91EF91C1
:10023000BF91AF919F918F917F916F915F914F91FE
:100240003F912F910F900FBE0F901F901895AF9276
:10025000BF92CF92DF92EF92FF920F931F93CF93B3
:10026000DF936C017A018B01DC011496AD90BC9098
:100270001597CB01BA0122E030E040E050E00E9447
:100280007804205C3D4B404F5F4FCA01B901A80183
:1002900097010E947804C901DA010197A109B10907
:1002A000292F3A2F4B2F552747FD5A950196A11D0F
:1002B000B11DE5012883E601EE81FF818150808335
:1002C000EA85FB85208141E050E0CA010E8402C02E
:1002D000880F991F0A94E2F7282B2083EA85FB8573
:1002E0002081CA010F8402C0880F991F0A94E2F787
:1002F000282B2083EA85FB858081088802C0440F73
:10030000551F0A94E2F7842B8083DF91CF911F91D0
:100310000F91FF90EF90DF90CF90BF90AF90089536
:10032000CF93DF93DC011296ED91FC911397EF01CF
:10033000CE57DF4F48815981E058FF4F808191812E
:10034000E058F0408417950719F42FEF3FEF0CC0E9
:10035000E40FF51F2081CA01019660E870E00E9459
:1003600043049983888330E0C901DF91CF910895D8
:10037000FC01A085B18521898C9190E0022E02C0FC
:10038000959587950A94E2F780FFF6CF0484F5856A
:10039000E02D6083089581E391E09093BF01809305
:1003A000BE018AE391E09093C1018093C00185EC86
:1003B00090E09093C3018093C20184EC90E090930D
:1003C000C5018093C40180EC90E09093C7018093B5
:1003D000C60181EC90E09093C9018093C80186EC3E
:1003E00090E09093CB018093CA0184E08093CC018C
:1003F00083E08093CD0187E08093CE0185E08093F8
:10040000CF0108950F931F93CF93DF938C01EB01DE
:1004100009C02196D801ED91FC910190F081E02D69
:10042000C801099568816623A1F7DF91CF911F91DB
:100430000F910895EF92FF920F931F93CF93DF9345
:100440008C017B01EA010CC0D7016D917D01D801BF
:10045000ED91FC910190F081E02DC8010995219763
:10046000209791F7DF91CF911F910F91FF90EF901F
:100470000895DC01ED91FC910280F381E02D099556
:1004800008950F931F938C01DC01ED91FC91019075
:10049000F081E02D6DE00995D801ED91FC9101907E
:1004A000F081E02DC8016AE009951F910F91089530
:1004B0000F931F938C010E943902C8010E944102D0
:1004C0001F910F9108952F923F924F925F926F92DA
:1004D0007F928F929F92AF92BF92CF92DF92EF92D4
:1004E000FF920F931F93DF93CF93CDB7DEB7A09703
:1004F0000FB6F894DEBF0FBECDBF1C016A017B01B1
:10050000411551056105710549F4DC01ED91FC913E
:100510000190F081E02D60E3099554C0882499246E
:100520005401422E55246624772401E010E00C0F7C
:100530001D1F080D191DC701B601A30192010E94DC
:100540005604F80160830894811C911CA11CB11C05
:10055000C701B601A30192010E945604C901DA0144
:100560006C017D01C114D104E104F104F1F681E0D4
:10057000E82EF12CEC0EFD1EE80CF91C3E0108944F
:10058000611C711CD501C4010197A109B1096C015D
:10059000C818D90814C0F601EE0DFF1D60816A303D
:1005A00010F4605D01C0695CD101ED91FC91019096
:1005B000F081E02DC10109950894E108F1086E145D
:1005C0007F0449F7A0960FB6F894DEBF0FBECDBFEB
:1005D000CF91DF911F910F91FF90EF90DF90CF901F
:1005E000BF90AF909F908F907F906F905F904F9053
:1005F0003F902F900895EF92FF920F931F93CF9308
:10060000DF93EC017A018B0177FF0FC0E881F9815C
:100610000190F081E02D6DE2099510950095F09420
:10062000E094E11CF11C011D111DCE01B801A701D0
:100630002AE00E946302DF91CF911F910F91FF90FA
:10064000EF900895AB01662757FD6095762F0E94C5
:10065000FB0208951F920F920FB60F9211242F9351
:100660003F938F939F93AF93BF938091D4019091C9
:10067000D501A091D601B091D7013091D801019652
:10068000A11DB11D232F2D5F2D3720F02D57019671
:10069000A11DB11D2093D8018093D4019093D50161
:1006A000A093D601B093D7018091D0019091D10150
:1006B000A091D201B091D3010196A11DB11D8093EB
:1006C000D0019093D101A093D201B093D301BF91F7
:1006D000AF919F918F913F912F910F900FBE0F90EF
:1006E0001F901895EF92FF920F931F937B018C013F
:1006F0008FB7F8944091D4015091D5016091D60103
:100700007091D7018FBF2FB7F8948091D401909149
:10071000D501A091D601B091D7012FBF841B950BB5
:10072000A60BB70BE816F9060A071B0760F71F911F
:100730000F91FF90EF900895789484B5826084BD06
:1007400084B5816084BD85B5826085BD85B58160D5
:1007500085BDEEE6F0E0808181608083E1E8F0E035
:10076000808182608083808181608083E0E8F0E026
:10077000808181608083E1EBF0E080818460808310
:10078000E0EBF0E0808181608083EAE7F0E0808147
:1007900084608083808182608083808181608083A7
:1007A0008081806880831092C1000895282F30E0F6
:1007B000C90186569F4FFC0194912A573F4FF9017A
:1007C0008491882391F0E82FF0E0EE0FFF1FE859A5
:1007D000FF4FA591B491662329F48C9190958923BC
:1007E0008C9308958C91892B8C930895482F50E019
:1007F000CA0182559F4FFC012491CA0186569F4F22
:10080000FC0194914A575F4FFA0134913323D1F19F
:10081000222331F1233021F4809180008F7705C0AD
:10082000243031F4809180008F7D8093800018C047
:10083000213019F484B58F7704C0223021F484B5B7
:100840008F7D84BD0DC0263021F48091B0008F775C
:1008500005C0273029F48091B0008F7D8093B000CF
:10086000E32FF0E0EE0FFF1FEE58FF4FA591B4917C
:10087000662329F48C91909589238C9308958C910B
:10088000892B8C93089597FB092E07260AD077FDB4
:1008900004D049D006D000201AF4709561957F4F9E
:1008A0000895F6F7909581959F4F0895A1E21A2E2D
:1008B000AA1BBB1BFD010DC0AA1FBB1FEE1FFF1F04
:1008C000A217B307E407F50720F0A21BB30BE40B54
:1008D000F50B661F771F881F991F1A9469F760959B
:1008E0007095809590959B01AC01BD01CF01089555
:1008F00097FB092E05260ED057FD04D0D7DF0AD06E
:10090000001C38F450954095309521953F4F4F4F3E
:100910005F4F0895F6F790958095709561957F4F9C
:100920008F4F9F4F0895AA1BBB1B51E107C0AA1F01
:10093000BB1FA617B70710F0A61BB70B881F991F80
:100940005A95A9F780959095BC01CD010895EE0FB9
:0E095000FF1F0590F491E02D0994F894FFCF5D
:10095E00626C696E6B21003A20576861742074686E
:10096E0065206865636B2061726520796F752073F1
:10097E00656E64696E67206D653F000D00000000B6
:08098E0000B80102021A020088
:00000001FF
