:100000000C9464000C94CC060C94F9060C948C00AF
:100010000C948C000C948C000C948C000C948C0030
:100020000C948C000C948C000C948C000C948C0020
:100030000C948C000C948C000C948C000C948C0010
:100040000C9426070C948C000C94AE030C948C003A
:100050000C948C000C948C000C948C000C948C00F0
:100060000C948C000C948C000000000024002700ED
:100070002A0000000000250028002B0000000000DE
:1000800023002600290004040404040404040202DA
:100090000202020203030303030301020408102007
:1000A0004080010204081020010204081020000012
:1000B0000007000201000003040600000000000029
:1000C000000081010902A30411241FBECFEFD4E078
:1000D000DEBFCDBF11E0A0E0B1E0E6ECF5E102C08B
:1000E00005900D92A236B107D9F712E0A2E6B1E071
:1000F00001C01D92A732B107E1F710E0C8ECD0E0D3
:1001000004C02297FE010E94DD0AC23CD107C9F754
:100110000E94A7030C94E10A0C9400002F923F92D6
:100120004F925F926F927F928F929F92AF92BF9207
:10013000CF92DF92EF92FF920F931F93DF93CF93B3
:1001400000D000D0CDB7DEB7FB013A01290118017C
:10015000FA82E982BC82AB825401E080F1800281A4
:100160001381C801B7012CE330E040E050E00E9469
:10017000AC0AD3016C93C801B7012CE330E040E036
:1001800050E00E94AC0A122F032FF42EE52E622FAE
:10019000732F842F952F2CE330E040E050E00E9435
:1001A000AC0AF2016083612F702F8F2D9E2D2CE3FE
:1001B00030E040E050E00E94AC0A122F032FF42EF2
:1001C000E52E622F732F842F952F28E130E040E039
:1001D00050E00E94AC0AD1016C93612F702F8F2DDB
:1001E0009E2D28E130E040E050E00E94AC0A790109
:1001F0008A01C801B7016C5F7F4F8F4F9F4F27E087
:1002000030E040E050E00E94AC0AF6016083E6E492
:1002100020E030E040E050E001C0EF5F6E2F70E082
:10022000637070706115710529F08DE691E0A0E0B2
:10023000B0E004C08EE691E0A0E0B0E0280F391FE6
:100240004A1F5B1FC901A0E0B0E0E816F9060A07E3
:100250001B071CF7D501EC936115710529F48EE697
:1002600091E0A0E0B0E004C08DE691E0A0E0B0E055
:10027000281B390B4A0B5B0BD801C701821B930B60
:10028000A40BB50B9C01AD01ECE4F1E090E09130E2
:1002900039F46115710511F08CE103C08DE101C0E5
:1002A0008081E82EFF2400E010E02E153F05400776
:1002B000510744F02E193F09400B510B9F5F3196B7
:1002C0009C3029F7AB81BC819C93822F8F5FE981A1
:1002D000FA8180830F900F900F900F90CF91DF9154
:1002E0001F910F91FF90EF90DF90CF90BF90AF9054
:1002F0009F908F907F906F905F904F903F902F9046
:10030000089510926B0110926A010895CF93DF93C4
:10031000EC0113C088819981AA81BB810196A11D3E
:10032000B11D88839983AA83BB8328513C4F4F4FCB
:100330005F4F2C833D834E835F830E946E072C8129
:100340003D814E815F81621B730B840B950B685E50
:10035000734080409040F0F6688179818A819B816A
:10036000DF91CF9108958F929F92AF92BF92CF92DB
:10037000DF92EF92FF920F931F93CF93DF93EC01E5
:1003800088859985892B11F480E020C0CE010E94D8
:1003900086019E01255F3F4F8E01065F1F4FFE01C4
:1003A0003D96DE011E969FE0A92EB12CAC0EBD1E1F
:1003B00080E1882E912C8C0E9D1ECE01BE012C96C4
:1003C000AE017F016D010E948E0081E0DF91CF912F
:1003D0001F910F91FF90EF90DF90CF90BF90AF9063
:1003E0009F908F9008950F931F938C01FC01408381
:1003F0005183628373830E946E07F801648375835F
:100400008683978382E090E0918780871F910F9188
:10041000089510927C010895DF92EF92FF920F935E
:100420001F93CF93DF9337C088E092E00E94680467
:100430008134910581F5EE24FF248701C0E0D0E0EE
:1004400088E092E00E946804D82E80538A30B8F485
:10045000C801B7012AE030E040E050E00E94580AAD
:100460002D2D332727FD309520533040790100276B
:10047000F7FC0095102FE60EF71E081F191F219696
:10048000CA30D105E9F682E691E0B801A7010E94E1
:10049000F30181E007C088E092E00E9454048B30B1
:1004A00018F680E0DF91CF911F910F91FF90EF90B0
:1004B000DF9008950E946E079B01AC0120934701D5
:1004C000309348014093490150934A0108950E9496
:1004D0006E079B01AC01209343013093440140938C
:1004E00045015093460108956F927F928F929F929B
:1004F000AF92BF92CF92DF92EF92FF920F931F9332
:1005000020914301309144014091450150914601B1
:100510008091470190914801A0914901B0914A0111
:10052000281739074A075B0709F0CBC080914101C2
:1005300061E00E94F40780917D010E94B6077C0172
:1005400080913D010E94B6075C0180913F010E94AD
:10055000B6073C010027F7FC0095102FC801B70132
:100560000E9445097B018C0182E691E00E94B30163
:1005700088E092E060E071E00E94110540917F0107
:100580005091800160918101709182014F5F5F4FB6
:100590006F4F7F4F40937F015093800160938101A3
:1005A00070938201415050406040704088E092E07A
:1005B0000E94D30588E092E069E171E00E94110594
:1005C00082E691E00E948601AB01BC0188E092E0E6
:1005D0000E94D30588E092E06EE171E00E9411056F
:1005E000CC24B7FCC094DC2CC601B5010E9445099F
:1005F000A80197010E94AA0820E030E042E053E4FD
:100600000E94F50920E030E040EF51E40E944108EB
:1006100020E030E040E151E40E94F50920E030E0C4
:1006200040EA50E40E94AA0820E030E040E052E4B2
:100630000E944208AB01BC0188E092E00E94A5063E
:1006400088E092E060E271E00E941105882477FC66
:100650008094982CC401B3010E94450920E030E049
:1006600048EC52E40E94F509A80197010E94AA08EB
:10067000AB01BC0188E092E00E94A50688E092E010
:1006800064E271E00E9430058091410160E00E94C7
:10069000F4078FEF9FEFAFEFBFEF8093430190938D
:1006A0004401A0934501B09346018DEF9FEFAFEF5A
:1006B000BFEF8093470190934801A0934901B09305
:1006C0004A011F910F91FF90EF90DF90CF90BF9064
:1006D000AF909F908F907F906F900895809141018F
:1006E00061E00E94D40780E067E672E042E050E0FB
:1006F0000E94A90681E06AE572E042E050E00E94B3
:10070000A90688E092E040E052EC61E070E00E94CF
:10071000EB0318C00E940C0280938301882391F0A0
:1007200088E092E069E271E00E94110582E691E0C2
:100730000E948601AB01BC0188E092E02AE030E033
:100740000E94130680918301882321F308950E945B
:100750007C070E946E030E947402FDCF1F920F92CD
:100760000FB60F9211242F933F934F935F936F9384
:100770007F938F939F93AF93BF93EF93FF9340919A
:10078000C600E0910402F0910502CF01019660E8F5
:1007900070E00E94770A9C01809106029091070206
:1007A0002817390739F0EC57FE4F40833093050284
:1007B00020930402FF91EF91BF91AF919F918F9190
:1007C0007F916F915F914F913F912F910F900FBE4D
:1007D0000F901F901895AF92BF92CF92DF92EF9239
:1007E000FF920F931F93CF93DF936C017A018B01DC
:1007F000DC011496AD90BC901597CB01BA0122E0B4
:1008000030E040E050E00E94AC0A205C3D4B404F9D
:100810005F4FCA01B901A80197010E94AC0AC90142
:10082000DA010197A109B109292F3A2F4B2F55273A
:1008300047FD5A950196A11DB11DE5012883E601EA
:10084000EE81FF8181508083EA85FB85208141E034
:1008500050E0CA010E8402C0880F991F0A94E2F783
:10086000282B2083EA85FB852081CA010F8402C0E2
:10087000880F991F0A94E2F7282B2083EA85FB85CD
:100880008081088802C0440F551F0A94E2F7842B28
:100890008083DF91CF911F910F91FF90EF90DF90B8
:1008A000CF90BF90AF900895DC011296ED91FC912E
:1008B0001397E058FF4F8191919180589F4F20816D
:1008C0003181821B930B60E870E00E94770A0895E3
:1008D000CF93DF93DC011296ED91FC911397EF011A
:1008E000CE57DF4F48815981E058FF4F8081918179
:1008F000E058F0408417950719F42FEF3FEF0CC034
:10090000E40FF51F2081CA01019660E870E00E94A3
:10091000770A9983888330E0C901DF91CF910895E8
:10092000FC01A085B18521898C9190E0022E02C046
:10093000959587950A94E2F780FFF6CF0484F585B4
:10094000E02D608308958CE591E0909309028093F7
:10095000080284E891E090930B0280930A0285ECF0
:1009600090E090930D0280930C0284EC90E09093C1
:100970000F0280930E0280EC90E09093110280931E
:10098000100281EC90E0909313028093120286ECA7
:1009900090E0909315028093140284E080931602F5
:1009A00083E08093170287E08093180285E08093AC
:1009B000190208950F931F93CF93DF938C01EB01DE
:1009C00009C02196D801ED91FC910190F081E02DB4
:1009D000C801099568816623A1F7DF91CF911F9126
:1009E0000F910895EF92FF920F931F93CF93DF9390
:1009F0008C017B01EA010CC0D7016D917D01D8010A
:100A0000ED91FC910190F081E02DC80109952197AD
:100A1000209791F7DF91CF911F910F91FF90EF9069
:100A20000895DC01ED91FC910280F381E02D0995A0
:100A300008950F931F938C01DC01ED91FC910190BF
:100A4000F081E02D6DE00995D801ED91FC910190C8
:100A5000F081E02DC8016AE009951F910F9108957A
:100A60000F931F938C010E941105C8010E94190564
:100A70001F910F9108952F923F924F925F926F9224
:100A80007F928F929F92AF92BF92CF92DF92EF921E
:100A9000FF920F931F93DF93CF93CDB7DEB7A0974D
:100AA0000FB6F894DEBF0FBECDBF1C016A017B01FB
:100AB000411551056105710549F4DC01ED91FC9189
:100AC0000190F081E02D60E3099554C088249924B9
:100AD0005401422E55246624772401E010E00C0FC7
:100AE0001D1F080D191DC701B601A30192010E9427
:100AF0008A0AF80160830894811C911CA11CB11C16
:100B0000C701B601A30192010E948A0AC901DA0154
:100B10006C017D01C114D104E104F104F1F681E01E
:100B2000E82EF12CEC0EFD1EE80CF91C3E01089499
:100B3000611C711CD501C4010197A109B1096C01A7
:100B4000C818D90814C0F601EE0DFF1D60816A3087
:100B500010F4605D01C0695CD101ED91FC910190E0
:100B6000F081E02DC10109950894E108F1086E14A7
:100B70007F0449F7A0960FB6F894DEBF0FBECDBF35
:100B8000CF91DF911F910F91FF90EF90DF90CF9069
:100B9000BF90AF909F908F907F906F905F904F909D
:100BA0003F902F9008952AE00E943B050895EF9210
:100BB000FF920F931F93CF93DF93EC017A018B0188
:100BC00077FF0FC0E881F9810190F081E02D6DE29F
:100BD000099510950095F094E094E11CF11C011D1D
:100BE000111DCE01B801A7012AE00E943B05DF914B
:100BF000CF911F910F91FF90EF900895DC01211587
:100C0000310541F4ED91FC910190F081E02D642FCC
:100C1000099508952A30310519F40E94D7050895E1
:100C20000E943B0508950F931F938C010E94FE05BF
:100C3000C8010E9419051F910F9108959F92AF92CC
:100C4000BF92CF92DF92EF92FF920F931F93CF93B9
:100C5000DF93EC017A018B01922ECB01BA0120E0E7
:100C600030E040E050E00E94A608882364F4E88168
:100C7000F9810190F081E02DCE016DE2099517FB1D
:100C8000109517F9109520E030E040E05FE3AA24CA
:100C90000BC0CA01B90120E030E040E251E40E94FB
:100CA000AA089B01AC01A394A91498F3C801B70149
:100CB0000E9442085B016C010E9417097B018C01B4
:100CC000CE01B801A7010E94D305992029F0CE01D9
:100CD0006BE371E00E941105C801B7010E9443094E
:100CE0009B01AC01C601B5010E94410820C020E073
:100CF00030E040E251E40E94F5097B018C010E9442
:100D000012095B016C01CC24B7FCC094DC2CCE0131
:100D1000B601A5010E94D705C601B5010E9445098B
:100D20009B01AC01C801B7010E9441089A94992027
:100D3000F1F6DF91CF911F910F91FF90EF90DF902F
:100D4000CF90BF90AF909F90089522E00E941E0622
:100D50000895823000F5E82FF0E0EE0FFF1FE65E09
:100D6000FD4F71836083882319F08130A1F408C09E
:100D7000809169008C7F842B80936900E89A0895A4
:100D800080916900440F551F440F551F837F842BAA
:100D900080936900E99A08951F920F920FB60F92FF
:100DA00011242F933F934F935F936F937F938F9370
:100DB0009F93AF93BF93EF93FF9380911A0290910B
:100DC0001B02892B29F0E0911A02F0911B02099570
:100DD000FF91EF91BF91AF919F918F917F916F9113
:100DE0005F914F913F912F910F900FBE0F901F90E9
:100DF00018951F920F920FB60F9211242F933F93C5
:100E00004F935F936F937F938F939F93AF93BF9312
:100E1000EF93FF9380911C0290911D02892B29F082
:100E2000E0911C02F0911D020995FF91EF91BF9195
:100E3000AF919F918F917F916F915F914F913F9172
:100E40002F910F900FBE0F901F9018951F920F9229
:100E50000FB60F9211242F933F938F939F93AF93CD
:100E6000BF938091220290912302A0912402B0911D
:100E70002502309126020196A11DB11D232F2D5F61
:100E80002D3720F02D570196A11DB11D209326026C
:100E90008093220290932302A0932402B093250210
:100EA00080911E0290911F02A0912002B091210218
:100EB0000196A11DB11D80931E0290931F02A09365
:100EC0002002B0932102BF91AF919F918F913F91EA
:100ED0002F910F900FBE0F901F9018958FB7F89419
:100EE0002091220230912302409124025091250248
:100EF0008FBFB901CA010895789484B5826084BD1A
:100F000084B5816084BD85B5826085BD85B581600D
:100F100085BDEEE6F0E0808181608083E1E8F0E06D
:100F2000808182608083808181608083E0E8F0E05E
:100F3000808181608083E1EBF0E080818460808348
:100F4000E0EBF0E0808181608083EAE7F0E080817F
:100F500084608083808182608083808181608083DF
:100F60008081806880831092C1000895877090917D
:100F70004B019295990F990F907C982B90937C0040
:100F800080917A00806480937A0080917A0086FD57
:100F9000FCCF2091780040917900942F80E030E0E0
:100FA000282B392BC9010895282F30E0C901865616
:100FB0009F4FFC0194912A573F4FF9018491882358
:100FC00091F0E82FF0E0EE0FFF1FE859FF4FA591D9
:100FD000B491662329F48C91909589238C9308957C
:100FE0008C91892B8C930895482F50E0CA0182552B
:100FF0009F4FFC012491CA0186569F4FFC0194919A
:101000004A575F4FFA0134913323D1F1222331F152
:10101000233021F4809180008F7705C0243031F493
:10102000809180008F7D8093800018C0213019F45A
:1010300084B58F7704C0223021F484B58F7D84BDC0
:101040000DC0263021F48091B0008F7705C0273085
:1010500029F48091B0008F7D8093B000E32FF0E001
:10106000EE0FFF1FEE58FF4FA591B491662329F4B0
:101070008C91909589238C9308958C91892B8C93D6
:1010800008955058BB27AA270ED075C166D130F0FD
:101090006BD120F031F49F3F11F41EF45BC10EF4CC
:1010A000E095E7FB51C1E92F77D180F3BA176207CA
:1010B00073078407950718F071F49EF58FC10EF43D
:1010C000E0950B2EBA2FA02D0B01B90190010C0158
:1010D000CA01A0011124FF27591B99F0593F50F470
:1010E000503E68F11A16F040A22F232F342F4427C8
:1010F000585FF3CF469537952795A795F0405395C0
:10110000C9F77EF41F16BA0B620B730B840BBAF08F
:101110009150A1F0FF0FBB1F661F771F881FC2F7FA
:101120000EC0BA0F621F731F841F48F4879577950E
:101130006795B795F7959E3F08F0B3CF9395880FC5
:1011400008F09927EE0F979587950895D9D008F460
:1011500081E008950CD00FC107D140F0FED030F0EF
:1011600021F45F3F19F0F0C0511139C1F3C014D11F
:1011700098F39923C9F35523B1F3951B550BBB275E
:10118000AA2762177307840738F09F5F5F4F220F0B
:10119000331F441FAA1FA9F333D00E2E3AF0E0E804
:1011A00030D091505040E695001CCAF729D0FE2F50
:1011B00027D0660F771F881FBB1F261737074807E2
:1011C000AB07B0E809F0BB0B802DBF01FF27935898
:1011D0005F4F2AF09E3F510568F0B6C000C15F3FE7
:1011E000ECF3983EDCF3869577956795B795F79580
:1011F0009F5FC9F7880F911D9695879597F9089578
:10120000E1E0660F771F881FBB1F62177307840713
:10121000BA0720F0621B730B840BBA0BEE1F88F722
:10122000E095089504D06894B111D9C00895BCD058
:1012300088F09F5790F0B92F9927B751A0F0D1F0BF
:10124000660F771F881F991F1AF0BA95C9F712C049
:10125000B13081F0C3D0B1E00895C0C0672F782FBE
:101260008827B85F39F0B93FCCF3869577956795B5
:10127000B395D9F73EF490958095709561957F4F21
:101280008F4F9F4F0895E89409C097FB3EF49095C7
:101290008095709561957F4F8F4F9F4F9923A9F04F
:1012A000F92F96E9BB279395F695879577956795DE
:1012B000B795F111F8CFFAF4BB0F11F460FF1BC022
:1012C0006F5F7F4F8F4F9F4F16C0882311F096E9B5
:1012D00011C0772321F09EE8872F762F05C0662363
:1012E00071F096E8862F70E060E02AF09A95660F1C
:1012F000771F881FDAF7880F9695879597F90895D5
:10130000990F0008550FAA0BE0E8FEEF1616170616
:10131000E807F907C0F012161306E407F50798F07E
:10132000621B730B840B950B39F40A2661F0232B97
:10133000242B252B21F408950A2609F4A140A69513
:101340008FEF811D811D089597F99F6780E870E0F8
:1013500060E008959FEF80EC089500240A9416162B
:10136000170618060906089500240A941216130693
:10137000140605060895092E0394000C11F4882321
:1013800052F0BB0F40F4BF2B11F460FF04C06F5F3D
:101390007F4F8F4F9F4F089557FD9058440F551F13
:1013A00059F05F3F71F04795880F97FB991F61F0E7
:1013B0009F3F79F087950895121613061406551F5E
:1013C000F2CF4695F1DF08C0161617061806991FCA
:1013D000F1CF86957105610508940895E894BB27BF
:1013E00066277727CB0197F908950BD0C4CFB5DFD7
:1013F00028F0BADF18F0952309F0A6CFABCF11245F
:10140000EECFCADFA0F3959FD1F3950F50E0551FA3
:10141000629FF001729FBB27F00DB11D639FAA2749
:10142000F00DB11DAA1F649F6627B00DA11D661F98
:10143000829F2227B00DA11D621F739FB00DA11DB9
:10144000621F839FA00D611D221F749F3327A00D73
:10145000611D231F849F600D211D822F762F6A2F0F
:1014600011249F5750408AF0E1F088234AF0EE0F94
:10147000FF1FBB1F661F771F881F91505040A9F7A1
:101480009E3F510570F060CFAACF5F3FECF3983ECE
:10149000DCF3869577956795B795F795E7959F5F08
:1014A000C1F7FE2B880F911D9695879597F90895A2
:1014B000629FD001739FF001829FE00DF11D649F38
:1014C000E00DF11D929FF00D839FF00D749FF00DC4
:1014D000659FF00D9927729FB00DE11DF91F639F65
:1014E000B00DE11DF91FBD01CF011124089597FB37
:1014F000092E07260AD077FD04D049D006D0002057
:101500001AF4709561957F4F0895F6F7909581953F
:101510009F4F0895A1E21A2EAA1BBB1BFD010DC00F
:10152000AA1FBB1FEE1FFF1FA217B307E407F50793
:1015300020F0A21BB30BE40BF50B661F771F881F6F
:10154000991F1A9469F760957095809590959B0105
:10155000AC01BD01CF01089597FB092E05260ED0E1
:1015600057FD04D0D7DF0AD0001C38F450954095C1
:10157000309521953F4F4F4F5F4F0895F6F7909567
:101580008095709561957F4F8F4F9F4F0895AA1B4F
:10159000BB1B51E107C0AA1FBB1FA617B70710F05E
:1015A000A61BB70B881F991F5A95A9F78095909590
:1015B000BC01CD010895EE0FFF1F0590F491E02DC1
:0615C0000994F894FFCF2E
:1015C6004120636F736D6963207472696767657222
:1015D600206E756D62657220002061742000200007
:1015E600204620002025524800436C6F636B207311
:1015F600796E6365642061743A20002E0002000152
:10160600000D00FFFFFFFFFDFFFFFF011F1C1F1E58
:101616001F1E1F1F1E1F1E1F000000009004DA045D
:02162600F204CC
:00000001FF
