:100000000C9435000C945D000C945D000C945D0024
:100010000C945D000C945D000C945D000C945D00EC
:100020000C945D000C945D000C945D000C945D00DC
:100030000C945D000C945D000C945D000C945D00CC
:100040000C94A6020C945D000C94AB000C945D0023
:100050000C945D000C945D000C945D000C945D00AC
:100060000C945D000C945D00640111241FBECFEF61
:10007000D4E0DEBFCDBF11E0A0E0B1E0E4E6F7E000
:1000800002C005900D92AC30B107D9F711E0ACE099
:10009000B1E001C01D92AB3AB107E1F710E0CAE64A
:1000A000D0E004C02297FE010E94AC03C836D107FD
:1000B000C9F70E94A4000C94B0030C940000CF92E6
:1000C000DF92EF92FF920F931F9380E00E9428032C
:1000D0007C0190E9C92E91E0D92EC6014FEF50E086
:1000E00060E070E020E030E00E9491024F2D552743
:1000F000662757FD6095762FC60120E030E00E940C
:1001000091020027F7FC0095102F8FEF90E0A0E000
:10011000B0E0E822F9220A231B23C601B801A70197
:1001200020E030E00E9491021F910F91FF90EF902C
:10013000DF90CF90089580E991E040E855E260E0DB
:1001400070E00E94E80008950E94EE020E949B0069
:100150000E945F00FDCF1F920F920FB60F921124E5
:100160002F933F934F935F936F937F938F939F93BF
:10017000AF93BF93EF93FF934091C600E0918C0142
:10018000F0918D01CF01019660E870E00E94460376
:100190009C0180918E0190918F012817390739F0C9
:1001A000E45FFE4F408330938D0120938C01FF91DB
:1001B000EF91BF91AF919F918F917F916F915F91DF
:1001C0004F913F912F910F900FBE0F901F90189558
:1001D000AF92BF92CF92DF92EF92FF920F931F9355
:1001E000CF93DF936C017A018B01DC011496AD9003
:1001F000BC901597CB01BA0122E030E040E050E01E
:100200000E947B03205C3D4B404F5F4FCA01B90108
:10021000A80197010E947B03C901DA010197A10996
:10022000B109292F3A2F4B2F552747FD5A95019693
:10023000A11DB11DE5012883E601EE81FF818150FA
:100240008083EA85FB85208141E050E0CA010E846D
:1002500002C0880F991F0A94E2F7282B2083EA85B1
:10026000FB852081CA010F8402C0880F991F0A9460
:10027000E2F7282B2083EA85FB858081088802C06D
:10028000440F551F0A94E2F7842B8083DF91CF91AE
:100290001F910F91FF90EF90DF90CF90BF90AF90A4
:1002A0000895FC01A085B18521898C9190E0022EF2
:1002B00002C0959587950A94E2F780FFF6CF0484F3
:1002C000F585E02D6083089585E091E0909391019C
:1002D000809390018CE091E0909393018093920140
:1002E00085EC90E0909395018093940184EC90E0EC
:1002F000909397018093960180EC90E09093990100
:100300008093980181EC90E090939B0180939A01F7
:1003100086EC90E090939D0180939C0184E0809313
:100320009E0183E080939F0187E08093A00185E098
:100330008093A10108950F931F93CF93DF938C01B6
:10034000EB0109C02196D801ED91FC910190F0815B
:10035000E02DC801099568816623A1F7DF91CF914F
:100360001F910F910895EF92FF920F931F93CF93D8
:10037000DF938C017B01EA010CC0D7016D917D01F7
:10038000D801ED91FC910190F081E02DC801099513
:100390002197209791F7DF91CF911F910F91FF90B7
:1003A000EF9008952F923F924F925F926F927F92BB
:1003B0008F929F92AF92BF92CF92DF92EF92FF9275
:1003C0000F931F93DF93CF93CDB7DEB7A0970FB6F0
:1003D000F894DEBF0FBECDBF1C016A017B01411541
:1003E00051056105710549F4DC01ED91FC91019025
:1003F000F081E02D60E3099554C0882499245401CC
:10040000422E55246624772401E010E00C0F1D1FB6
:10041000080D191DC701B601A30192010E945903DD
:10042000F80160830894811C911CA11CB11CC701B8
:10043000B601A30192010E945903C901DA016C01BE
:100440007D01C114D104E104F104F1F681E0E82E4C
:10045000F12CEC0EFD1EE80CF91C3E010894611C09
:10046000711CD501C4010197A109B1096C01C8181B
:10047000D90814C0F601EE0DFF1D60816A3010F43A
:10048000605D01C0695CD101ED91FC910190F0814A
:10049000E02DC10109950894E108F1086E147F046C
:1004A00049F7A0960FB6F894DEBF0FBECDBFCF912F
:1004B000DF911F910F91FF90EF90DF90CF90BF9051
:1004C000AF909F908F907F906F905F904F903F90F4
:1004D0002F900895EF92FF920F931F93CF93DF9386
:1004E000EC017A018B0177FF0FC0E881F98101905F
:1004F000F081E02D6DE2099510950095F094E0945F
:10050000E11CF11C011D111DCE01B801A7012AE05B
:100510000E94D201DF91CF911F910F91FF90EF9038
:100520000895DC012115310541F4ED91FC91019014
:10053000F081E02D642F099508952A30310519F4D2
:100540000E946A0208950E94D20108951F920F929C
:100550000FB60F9211242F933F938F939F93AF93D6
:10056000BF938091A6019091A701A091A801B0919D
:10057000A9013091AA010196A11DB11D232F2D5F64
:100580002D3720F02D570196A11DB11D2093AA01F2
:100590008093A6019093A701A093A801B093A9010D
:1005A0008091A2019091A301A091A401B091A50115
:1005B0000196A11DB11D8093A2019093A301A09368
:1005C000A401B093A501BF91AF919F918F913F91ED
:1005D0002F910F900FBE0F901F901895789484B5AF
:1005E000826084BD84B5816084BD85B5826085BD2F
:1005F00085B5816085BDEEE6F0E080818160808315
:10060000E1E8F0E080818260808380818160808386
:10061000E0E8F0E0808181608083E1EBF0E08081C0
:1006200084608083E0EBF0E0808181608083EAE792
:10063000F0E080818460808380818260808380811B
:10064000816080838081806880831092C1000895DA
:100650008770909100019295990F990F907C982B3B
:1006600090937C0080917A00806480937A008091DE
:100670007A0086FDFCCF2091780040917900942F7C
:1006800080E030E0282B392BC901089597FB092E13
:1006900007260AD077FD04D049D006D000201AF4EE
:1006A000709561957F4F0895F6F7909581959F4FCE
:1006B0000895A1E21A2EAA1BBB1BFD010DC0AA1FA3
:1006C000BB1FEE1FFF1FA217B307E407F50720F0BB
:1006D000A21BB30BE40BF50B661F771F881F991F36
:1006E0001A9469F760957095809590959B01AC017F
:1006F000BD01CF01089597FB092E05260ED057FDA9
:1007000004D0D7DF0AD0001C38F4509540953095BE
:1007100021953F4F4F4F5F4F0895F6F79095809585
:10072000709561957F4F8F4F9F4F0895AA1BBB1BFC
:1007300051E107C0AA1FBB1FA617B70710F0A61BE1
:10074000B70B881F991F5A95A9F780959095BC0102
:10075000CD010895EE0FFF1F0590F491E02D09944F
:04076000F894FFCF3B
:0C076400010000000051019B01B30100E6
:00000001FF
