:100000000C9464000C948C000C948C000C948C0068
:100010000C948C000C948C000C948C000C948C0030
:100020000C948C000C948C000C948C000C948C0020
:100030000C948C000C948C000C948C000C948C0010
:100040000C9442050C948C000C94D2020C948C00FD
:100050000C948C000C948C000C948C000C948C00F0
:100060000C948C000C948C000000000024002700ED
:100070002A0000000000250028002B0000000000DE
:1000800023002600290004040404040404040202DA
:100090000202020203030303030301020408102007
:1000A0004080010204081020010204081020000012
:1000B0000007000201000003040600000000000029
:1000C000000081010902C70311241FBECFEFD4E055
:1000D000DEBFCDBF11E0A0E0B1E0E8EEFDE002C080
:1000E00005900D92A832B107D9F711E0A8E2B1E06E
:1000F00001C01D92A33EB107E1F710E0C8ECD0E0CB
:1001000004C02297FE010E94EE06C23CD107C9F747
:100110000E94CB020C94F2060C9400002F923F92A6
:100120004F925F926F927F928F929F92AF92BF9207
:10013000CF92DF92EF92FF920F931F93DF93CF93B3
:1001400000D000D0CDB7DEB7FB013A01290118017C
:10015000FA82E982BC82AB825401E080F1800281A4
:100160001381C801B7012CE330E040E050E00E9469
:10017000BD06D3016C93C801B7012CE330E040E029
:1001800050E00E94BD06122F032FF42EE52E622FA1
:10019000732F842F952F2CE330E040E050E00E9435
:1001A000BD06F2016083612F702F8F2D9E2D2CE3F1
:1001B00030E040E050E00E94BD06122F032FF42EE5
:1001C000E52E622F732F842F952F28E130E040E039
:1001D00050E00E94BD06D1016C93612F702F8F2DCE
:1001E0009E2D28E130E040E050E00E94BD067901FC
:1001F0008A01C801B7016C5F7F4F8F4F9F4F27E087
:1002000030E040E050E00E94BD06F6016083E6E485
:1002100020E030E040E050E001C0EF5F6E2F70E082
:10022000637070706115710529F08DE691E0A0E0B2
:10023000B0E004C08EE691E0A0E0B0E0280F391FE6
:100240004A1F5B1FC901A0E0B0E0E816F9060A07E3
:100250001B071CF7D501EC936115710529F48EE697
:1002600091E0A0E0B0E004C08DE691E0A0E0B0E055
:10027000281B390B4A0B5B0BD801C701821B930B60
:10028000A40BB50B9C01AD01E2E1F1E090E09130EF
:1002900039F46115710511F08CE103C08DE101C0E5
:1002A0008081E82EFF2400E010E02E153F05400776
:1002B000510744F02E193F09400B510B9F5F3196B7
:1002C0009C3029F7AB81BC819C93822F8F5FE981A1
:1002D000FA8180830F900F900F900F90CF91DF9154
:1002E0001F910F91FF90EF90DF90CF90BF90AF9054
:1002F0009F908F907F906F905F904F903F902F9046
:10030000089510923101109230010895CF93DF9338
:10031000EC0113C088819981AA81BB810196A11D3E
:10032000B11D88839983AA83BB8328513C4F4F4FCB
:100330005F4F2C833D834E835F830E948A052C810F
:100340003D814E815F81621B730B840B950B685E50
:10035000734080409040F0F6688179818A819B816A
:10036000DF91CF9108958F929F92AF92BF92CF92DB
:10037000DF92EF92FF920F931F93CF93DF93EC01E5
:1003800088859985892B11F480E020C0CE010E94D8
:1003900086019E01255F3F4F8E01065F1F4FFE01C4
:1003A0003D96DE011E969FE0A92EB12CAC0EBD1E1F
:1003B00080E1882E912C8C0E9D1ECE01BE012C96C4
:1003C000AE017F016D010E948E0081E0DF91CF912F
:1003D0001F910F91FF90EF90DF90CF90BF90AF9063
:1003E0009F908F9008950F931F938C01FC01408381
:1003F0005183628373830E948A05F8016483758345
:100400008683978382E090E0918780871F910F9188
:100410000895109242010895DF92EF92FF920F9398
:100420001F93CF93DF9337C088EC91E00E948C0339
:100430008134910581F5EE24FF248701C0E0D0E0EE
:1004400088EC91E00E948C03D82E80538A30B8F457
:10045000C801B7012AE030E040E050E00E946906A0
:100460002D2D332727FD309520533040790100276B
:10047000F7FC0095102FE60EF71E081F191F219696
:10048000CA30D105E9F688E291E0B801A7010E94DF
:10049000F30181E007C088EC91E00E9478038B3083
:1004A00018F680E0DF91CF911F910F91FF90EF90B0
:1004B000DF900895EF92FF920F931F938091430175
:1004C0008823C1F40E940C0280934301882391F099
:1004D00088EC91E060E071E00E94350488E291E0F0
:1004E0000E948601AB01BC0188EC91E02AE030E07B
:1004F0000E943705809143018823A9F188E291E0A9
:100500000E94B301882379F18DE060E00E941C060F
:1005100088E291E00E9486017B018C0188E291E0F3
:100520000E948601E616F70608071907B9F388E264
:1005300091E00E94B30188EC91E041E450E060E07A
:1005400070E020E030E00E94220588E291E00E9405
:100550008601AB01BC0188EC91E00E94F0048DE0C3
:1005600061E00E941C0664E670E080E090E00E947A
:1005700098051F910F91FF90EF90089588EC91E0FE
:1005800040E05BE460E070E00E940F038DE061E01A
:100590000E94FC0508950E94C2050E94BE020E94AE
:1005A0005A02FDCF1F920F920FB60F9211242F9374
:1005B0003F934F935F936F937F938F939F93AF93EB
:1005C000BF93EF93FF934091C600E091C401F09177
:1005D000C501CF01019660E870E00E9488069C0189
:1005E0008091C6019091C7012817390739F0EC5B5B
:1005F000FE4F40833093C5012093C401FF91EF91DA
:10060000BF91AF919F918F917F916F915F914F912A
:100610003F912F910F900FBE0F901F901895AF92A2
:10062000BF92CF92DF92EF92FF920F931F93CF93DF
:10063000DF936C017A018B01DC011496AD90BC90C4
:100640001597CB01BA0122E030E040E050E00E9473
:10065000BD06205C3D4B404F5F4FCA01B901A80168
:1006600097010E94BD06C901DA010197A109B109EC
:10067000292F3A2F4B2F552747FD5A950196A11D3B
:10068000B11DE5012883E601EE81FF818150808361
:10069000EA85FB85208141E050E0CA010E8402C05A
:1006A000880F991F0A94E2F7282B2083EA85FB859F
:1006B0002081CA010F8402C0880F991F0A94E2F7B3
:1006C000282B2083EA85FB858081088802C0440F9F
:1006D000551F0A94E2F7842B8083DF91CF911F91FD
:1006E0000F91FF90EF90DF90CF90BF90AF90089563
:1006F000DC011296ED91FC911397E058FF4F819128
:10070000919180589F4F20813181821B930B60E82B
:1007100070E00E9488060895CF93DF93DC01129663
:10072000ED91FC911397EF01CE57DF4F488159812E
:10073000E058FF4F80819181E058F0408417950781
:1007400019F42FEF3FEF0CC0E40FF51F2081CA0111
:10075000019660E870E00E9488069983888330E003
:10076000C901DF91CF910895FC01A085B185218950
:100770008C9190E0022E02C0959587950A94E2F73D
:1007800080FFF6CF0484F585E02D6083089582E232
:1007900091E09093C9018093C80184E491E0909323
:1007A000CB018093CA0185EC90E09093CD018093BA
:1007B000CC0184EC90E09093CF018093CE0180EC4B
:1007C00090E09093D1018093D00181EC90E09093E0
:1007D000D3018093D20186EC90E09093D501809371
:1007E000D40184E08093D60183E08093D70187E031
:1007F0008093D80185E08093D90108950F931F93CA
:10080000CF93DF938C01EB0109C02196D801ED91C4
:10081000FC910190F081E02DC80109956881662363
:10082000A1F7DF91CF911F910F910895EF92FF9261
:100830000F931F93CF93DF938C017B01EA010CC0D0
:10084000D7016D917D01D801ED91FC910190F0816E
:10085000E02DC80109952197209791F7DF91CF915D
:100860001F910F91FF90EF900895DC01ED91FC91A5
:100870000280F381E02D099508950F931F938C0159
:10088000DC01ED91FC910190F081E02D6DE0099586
:10089000D801ED91FC910190F081E02DC8016AE052
:1008A00009951F910F9108952F923F924F925F9259
:1008B0006F927F928F929F92AF92BF92CF92DF9270
:1008C000EF92FF920F931F93DF93CF93CDB7DEB7D5
:1008D000A0970FB6F894DEBF0FBECDBF1C016A0112
:1008E0007B01411551056105710549F4DC01ED916C
:1008F000FC910190F081E02D60E3099554C08824BB
:1009000099245401422E55246624772401E010E0F6
:100910000C0F1D1F080D191DC701B601A30192017F
:100920000E949B06F80160830894811C911CA11C05
:10093000B11CC701B601A30192010E949B06C90127
:10094000DA016C017D01C114D104E104F104F1F676
:1009500081E0E82EF12CEC0EFD1EE80CF91C3E01A6
:100960000894611C711CD501C4010197A109B1094A
:100970006C01C818D90814C0F601EE0DFF1D608186
:100980006A3010F4605D01C0695CD101ED91FC91A9
:100990000190F081E02DC10109950894E108F1086A
:1009A0006E147F0449F7A0960FB6F894DEBF0FBE11
:1009B000CDBFCF91DF911F910F91FF90EF90DF900E
:1009C000CF90BF90AF909F908F907F906F905F90EF
:1009D0004F903F902F9008952AE00E94540408956C
:1009E0000F931F938C010E94EC04C8010E943D04E8
:1009F0001F910F910895EF92FF920F931F93CF9342
:100A0000DF93EC017A018B0177FF0FC0E881F98158
:100A10000190F081E02D6DE2099510950095F0941C
:100A2000E094E11CF11C011D111DCE01B801A701CC
:100A30002AE00E945404DF91CF911F910F91FF9003
:100A4000EF900895DC012115310541F4ED91FC9101
:100A50000190F081E02D642F099508952A30310529
:100A600019F40E94FB0408950E94540408950F9302
:100A70001F938C010E942205C8010E943D041F9112
:100A80000F9108951F920F920FB60F9211242F937A
:100A90003F938F939F93AF93BF938091DE0190918B
:100AA000DF01A091E001B091E1013091E2010196F6
:100AB000A11DB11D232F2D5F2D3720F02D5701963D
:100AC000A11DB11D2093E2018093DE019093DF010F
:100AD000A093E001B093E1018091DA019091DB01F4
:100AE000A091DC01B091DD010196A11DB11D8093A3
:100AF000DA019093DB01A093DC01B093DD01BF919B
:100B0000AF919F918F913F912F910F900FBE0F90BA
:100B10001F9018958FB7F8942091DE013091DF0176
:100B20004091E0015091E1018FBFB901CA010895E0
:100B3000EF92FF920F931F937B018C018FB7F89474
:100B40004091DE015091DF016091E0017091E1017F
:100B50008FBF2FB7F8948091DE019091DF01A091B3
:100B6000E001B091E1012FBF841B950BA60BB70BE1
:100B7000E816F9060A071B0760F71F910F91FF900F
:100B8000EF900895789484B5826084BD84B58160C7
:100B900084BD85B5826085BD85B5816085BDEEE685
:100BA000F0E0808181608083E1E8F0E08081826014
:100BB0008083808181608083E0E8F0E080818160D3
:100BC0008083E1EBF0E0808184608083E0EBF0E003
:100BD000808181608083EAE7F0E0808184608083A7
:100BE0008081826080838081816080838081806851
:100BF00080831092C1000895282F30E0C9018656E5
:100C00009F4FFC0194912A573F4FF901849188230B
:100C100091F0E82FF0E0EE0FFF1FE859FF4FA5918C
:100C2000B491662329F48C91909589238C9308952F
:100C30008C91892B8C930895482F50E0CA018255DE
:100C40009F4FFC012491CA0186569F4FFC0194914D
:100C50004A575F4FFA0134913323D1F1222331F106
:100C6000233021F4809180008F7705C0243031F447
:100C7000809180008F7D8093800018C0213019F40E
:100C800084B58F7704C0223021F484B58F7D84BD74
:100C90000DC0263021F48091B0008F7705C0273039
:100CA00029F48091B0008F7D8093B000E32FF0E0B5
:100CB000EE0FFF1FEE58FF4FA591B491662329F464
:100CC0008C91909589238C9308958C91892B8C938A
:100CD0000895629FD001739FF001829FE00DF11D86
:100CE000649FE00DF11D929FF00D839FF00D749FA6
:100CF000F00D659FF00D9927729FB00DE11DF91F52
:100D0000639FB00DE11DF91FBD01CF0111240895AE
:100D100097FB092E07260AD077FD04D049D006D0CC
:100D200000201AF4709561957F4F0895F6F790951D
:100D300081959F4F0895A1E21A2EAA1BBB1BFD01AE
:100D40000DC0AA1FBB1FEE1FFF1FA217B307E407AA
:100D5000F50720F0A21BB30BE40BF50B661F771F02
:100D6000881F991F1A9469F76095709580959095E2
:100D70009B01AC01BD01CF01089597FB092E05260B
:100D80000ED057FD04D0D7DF0AD0001C38F45095A0
:100D90004095309521953F4F4F4F5F4F0895F6F79F
:100DA00090958095709561957F4F8F4F9F4F0895D7
:100DB000AA1BBB1B51E107C0AA1FBB1FA617B70781
:100DC00010F0A61BB70B881F991F5A95A9F780959D
:100DD0009095BC01CD010895EE0FFF1F0590F49191
:080DE000E02D0994F894FFCF07
:100DE800436C6F636B2073796E6365642061743A3A
:100DF80020001F1C1F1E1F1E1F1F1E1F1E1F00005E
:080E08000000B403FE03160410
:00000001FF
